{
  "contractName": "SupplyChain",
  "abi": [
    {
      "constant": true,
      "inputs": [
        {
          "internalType": "int256",
          "name": "",
          "type": "int256"
        }
      ],
      "name": "orders",
      "outputs": [
        {
          "internalType": "int256",
          "name": "id",
          "type": "int256"
        },
        {
          "internalType": "int256",
          "name": "productId",
          "type": "int256"
        },
        {
          "internalType": "int256",
          "name": "quantity",
          "type": "int256"
        },
        {
          "internalType": "string",
          "name": "customerName",
          "type": "string"
        },
        {
          "internalType": "string",
          "name": "status",
          "type": "string"
        },
        {
          "internalType": "string",
          "name": "deliveryAddress",
          "type": "string"
        },
        {
          "internalType": "address",
          "name": "customer",
          "type": "address"
        }
      ],
      "payable": false,
      "stateMutability": "view",
      "type": "function"
    },
    {
      "constant": true,
      "inputs": [
        {
          "internalType": "int256",
          "name": "",
          "type": "int256"
        }
      ],
      "name": "products",
      "outputs": [
        {
          "internalType": "int256",
          "name": "id",
          "type": "int256"
        },
        {
          "internalType": "int256",
          "name": "price",
          "type": "int256"
        },
        {
          "internalType": "int256",
          "name": "quantity",
          "type": "int256"
        },
        {
          "internalType": "string",
          "name": "name",
          "type": "string"
        },
        {
          "internalType": "address",
          "name": "producer",
          "type": "address"
        }
      ],
      "payable": false,
      "stateMutability": "view",
      "type": "function"
    },
    {
      "constant": true,
      "inputs": [
        {
          "internalType": "address",
          "name": "",
          "type": "address"
        }
      ],
      "name": "stakeholders",
      "outputs": [
        {
          "internalType": "string",
          "name": "",
          "type": "string"
        }
      ],
      "payable": false,
      "stateMutability": "view",
      "type": "function"
    },
    {
      "constant": true,
      "inputs": [],
      "name": "totalOrder",
      "outputs": [
        {
          "internalType": "int256",
          "name": "",
          "type": "int256"
        }
      ],
      "payable": false,
      "stateMutability": "view",
      "type": "function"
    },
    {
      "constant": true,
      "inputs": [],
      "name": "totalProduct",
      "outputs": [
        {
          "internalType": "int256",
          "name": "",
          "type": "int256"
        }
      ],
      "payable": false,
      "stateMutability": "view",
      "type": "function"
    },
    {
      "constant": false,
      "inputs": [
        {
          "internalType": "string",
          "name": "_role",
          "type": "string"
        }
      ],
      "name": "registerStakeholder",
      "outputs": [],
      "payable": false,
      "stateMutability": "nonpayable",
      "type": "function"
    },
    {
      "constant": false,
      "inputs": [
        {
          "internalType": "string",
          "name": "_name",
          "type": "string"
        },
        {
          "internalType": "int256",
          "name": "_price",
          "type": "int256"
        },
        {
          "internalType": "int256",
          "name": "_quantity",
          "type": "int256"
        }
      ],
      "name": "addProduct",
      "outputs": [],
      "payable": false,
      "stateMutability": "nonpayable",
      "type": "function"
    },
    {
      "constant": false,
      "inputs": [
        {
          "internalType": "string",
          "name": "_customerName",
          "type": "string"
        },
        {
          "internalType": "string",
          "name": "_deliveryAddress",
          "type": "string"
        },
        {
          "internalType": "int256",
          "name": "_productId",
          "type": "int256"
        },
        {
          "internalType": "int256",
          "name": "_quantity",
          "type": "int256"
        }
      ],
      "name": "placeOrder",
      "outputs": [],
      "payable": false,
      "stateMutability": "nonpayable",
      "type": "function"
    },
    {
      "constant": false,
      "inputs": [
        {
          "internalType": "int256",
          "name": "_orderId",
          "type": "int256"
        },
        {
          "internalType": "string",
          "name": "_status",
          "type": "string"
        }
      ],
      "name": "updateOrderStatus",
      "outputs": [],
      "payable": false,
      "stateMutability": "nonpayable",
      "type": "function"
    },
    {
      "constant": false,
      "inputs": [
        {
          "internalType": "int256",
          "name": "_productId",
          "type": "int256"
        },
        {
          "internalType": "int256",
          "name": "_quantity",
          "type": "int256"
        }
      ],
      "name": "transferToManufacturer",
      "outputs": [],
      "payable": false,
      "stateMutability": "nonpayable",
      "type": "function"
    },
    {
      "constant": false,
      "inputs": [
        {
          "internalType": "int256",
          "name": "_productId",
          "type": "int256"
        },
        {
          "internalType": "int256",
          "name": "_quantity",
          "type": "int256"
        }
      ],
      "name": "transferToDistributor",
      "outputs": [],
      "payable": false,
      "stateMutability": "nonpayable",
      "type": "function"
    },
    {
      "constant": false,
      "inputs": [
        {
          "internalType": "int256",
          "name": "_productId",
          "type": "int256"
        },
        {
          "internalType": "int256",
          "name": "_quantity",
          "type": "int256"
        }
      ],
      "name": "transferToRetailer",
      "outputs": [],
      "payable": false,
      "stateMutability": "nonpayable",
      "type": "function"
    },
    {
      "constant": false,
      "inputs": [
        {
          "internalType": "int256",
          "name": "_productId",
          "type": "int256"
        },
        {
          "internalType": "int256",
          "name": "_quantity",
          "type": "int256"
        }
      ],
      "name": "transferToCustomer",
      "outputs": [],
      "payable": false,
      "stateMutability": "nonpayable",
      "type": "function"
    }
  ],
  "bytecode": "0x60806040526000600155600060035534801561001a57600080fd5b50611f948061002a6000396000f3fe608060405234801561001057600080fd5b50600436106100cf5760003560e01c80639023f2731161008c578063b41a518411610066578063b41a518414610624578063b634a02c146107eb578063c07cfca914610823578063c34de0b4146108e0576100cf565b80639023f273146103b757806399b88fb614610486578063a8e2aebe146105ec576100cf565b8063049f7874146100d4578063216e2a97146101995780632b346423146101b75780633ee54df1146102a6578063566bceef146102de57806382b7a324146102fc575b600080fd5b610197600480360360408110156100ea57600080fd5b81019080803590602001909291908035906020019064010000000081111561011157600080fd5b82018360208201111561012357600080fd5b8035906020019184600183028401116401000000008311171561014557600080fd5b91908080601f016020809104026020016040519081016040528093929190818152602001838380828437600081840152601f19601f820116905080830192505050505050509192919290505050610918565b005b6101a1610f13565b6040518082815260200191505060405180910390f35b6101e3600480360360208110156101cd57600080fd5b8101908080359060200190929190505050610f19565b60405180868152602001858152602001848152602001806020018373ffffffffffffffffffffffffffffffffffffffff1673ffffffffffffffffffffffffffffffffffffffff168152602001828103825284818151815260200191508051906020019080838360005b8381101561026757808201518184015260208101905061024c565b50505050905090810190601f1680156102945780820380516001836020036101000a031916815260200191505b50965050505050505060405180910390f35b6102dc600480360360408110156102bc57600080fd5b810190808035906020019092919080359060200190929190505050611007565b005b6102e66111a0565b6040518082815260200191505060405180910390f35b6103b56004803603602081101561031257600080fd5b810190808035906020019064010000000081111561032f57600080fd5b82018360208201111561034157600080fd5b8035906020019184600183028401116401000000008311171561036357600080fd5b91908080601f016020809104026020016040519081016040528093929190818152602001838380828437600081840152601f19601f8201169050808301925050505050505091929192905050506111a6565b005b610484600480360360608110156103cd57600080fd5b81019080803590602001906401000000008111156103ea57600080fd5b8201836020820111156103fc57600080fd5b8035906020019184600183028401116401000000008311171561041e57600080fd5b91908080601f016020809104026020016040519081016040528093929190818152602001838380828437600081840152601f19601f82011690508083019250505050505050919291929080359060200190929190803590602001909291905050506112c4565b005b6105ea6004803603608081101561049c57600080fd5b81019080803590602001906401000000008111156104b957600080fd5b8201836020820111156104cb57600080fd5b803590602001918460018302840111640100000000831117156104ed57600080fd5b91908080601f016020809104026020016040519081016040528093929190818152602001838380828437600081840152601f19601f8201169050808301925050505050505091929192908035906020019064010000000081111561055057600080fd5b82018360208201111561056257600080fd5b8035906020019184600183028401116401000000008311171561058457600080fd5b91908080601f016020809104026020016040519081016040528093929190818152602001838380828437600081840152601f19601f820116905080830192505050505050509192919290803590602001909291908035906020019092919050505061147a565b005b6106226004803603604081101561060257600080fd5b810190808035906020019092919080359060200190929190505050611695565b005b6106506004803603602081101561063a57600080fd5b810190808035906020019092919050505061182e565b604051808881526020018781526020018681526020018060200180602001806020018573ffffffffffffffffffffffffffffffffffffffff1673ffffffffffffffffffffffffffffffffffffffff168152602001848103845288818151815260200191508051906020019080838360005b838110156106dc5780820151818401526020810190506106c1565b50505050905090810190601f1680156107095780820380516001836020036101000a031916815260200191505b50848103835287818151815260200191508051906020019080838360005b83811015610742578082015181840152602081019050610727565b50505050905090810190601f16801561076f5780820380516001836020036101000a031916815260200191505b50848103825286818151815260200191508051906020019080838360005b838110156107a857808201518184015260208101905061078d565b50505050905090810190601f1680156107d55780820380516001836020036101000a031916815260200191505b509a505050505050505050505060405180910390f35b6108216004803603604081101561080157600080fd5b810190808035906020019092919080359060200190929190505050611a58565b005b6108656004803603602081101561083957600080fd5b81019080803573ffffffffffffffffffffffffffffffffffffffff169060200190929190505050611bf1565b6040518080602001828103825283818151815260200191508051906020019080838360005b838110156108a557808201518184015260208101905061088a565b50505050905090810190601f1680156108d25780820380516001836020036101000a031916815260200191505b509250505060405180910390f35b610916600480360360408110156108f657600080fd5b810190808035906020019092919080359060200190929190505050611ca1565b005b60405160200180807f50726f64756365720000000000000000000000000000000000000000000000008152506008019050604051602081830303815290604052805190602001206000803373ffffffffffffffffffffffffffffffffffffffff1673ffffffffffffffffffffffffffffffffffffffff16815260200190815260200160002060405160200180828054600181600116156101000203166002900480156109fb5780601f106109d95761010080835404028352918201916109fb565b820191906000526020600020905b8154815290600101906020018083116109e7575b5050915050604051602081830303815290604052805190602001201480610b1d575060405160200180807f4d616e7566616374757265720000000000000000000000000000000000000000815250600c019050604051602081830303815290604052805190602001206000803373ffffffffffffffffffffffffffffffffffffffff1673ffffffffffffffffffffffffffffffffffffffff1681526020019081526020016000206040516020018082805460018160011615610100020316600290048015610b005780601f10610ade576101008083540402835291820191610b00565b820191906000526020600020905b815481529060010190602001808311610aec575b505091505060405160208183030381529060405280519060200120145b80610c23575060405160200180807f4469737472696275746f72000000000000000000000000000000000000000000815250600b019050604051602081830303815290604052805190602001206000803373ffffffffffffffffffffffffffffffffffffffff1673ffffffffffffffffffffffffffffffffffffffff1681526020019081526020016000206040516020018082805460018160011615610100020316600290048015610c065780601f10610be4576101008083540402835291820191610c06565b820191906000526020600020905b815481529060010190602001808311610bf2575b505091505060405160208183030381529060405280519060200120145b80610d29575060405160200180807f52657461696c65720000000000000000000000000000000000000000000000008152506008019050604051602081830303815290604052805190602001206000803373ffffffffffffffffffffffffffffffffffffffff1673ffffffffffffffffffffffffffffffffffffffff1681526020019081526020016000206040516020018082805460018160011615610100020316600290048015610d0c5780601f10610cea576101008083540402835291820191610d0c565b820191906000526020600020905b815481529060010190602001808311610cf8575b505091505060405160208183030381529060405280519060200120145b610d9b576040517f08c379a000000000000000000000000000000000000000000000000000000000815260040180806020018281038252600c8152602001807f556e617574686f72697a6564000000000000000000000000000000000000000081525060200191505060405180910390fd5b60405160200180807f506c616365640000000000000000000000000000000000000000000000000000815250600601905060405160208183030381529060405280519060200120600460008481526020019081526020016000206004016040516020018082805460018160011615610100020316600290048015610e565780601f10610e34576101008083540402835291820191610e56565b820191906000526020600020905b815481529060010190602001808311610e42575b50509150506040516020818303038152906040528051906020012014610ee4576040517f08c379a000000000000000000000000000000000000000000000000000000000815260040180806020018281038252601e8152602001807f4f72646572207374617475732063616e6e6f742062652075706461746564000081525060200191505060405180910390fd5b80600460008481526020019081526020016000206004019080519060200190610f0e929190611e3a565b505050565b60035481565b6002602052806000526040600020600091509050806000015490806001015490806002015490806003018054600181600116156101000203166002900480601f016020809104026020016040519081016040528092919081815260200182805460018160011615610100020316600290048015610fd75780601f10610fac57610100808354040283529160200191610fd7565b820191906000526020600020905b815481529060010190602001808311610fba57829003601f168201915b5050505050908060040160009054906101000a900473ffffffffffffffffffffffffffffffffffffffff16905085565b60405160200180807f50726f64756365720000000000000000000000000000000000000000000000008152506008019050604051602081830303815290604052805190602001206000803373ffffffffffffffffffffffffffffffffffffffff1673ffffffffffffffffffffffffffffffffffffffff16815260200190815260200160002060405160200180828054600181600116156101000203166002900480156110ea5780601f106110c85761010080835404028352918201916110ea565b820191906000526020600020905b8154815290600101906020018083116110d6575b50509150506040516020818303038152906040528051906020012014611178576040517f08c379a000000000000000000000000000000000000000000000000000000000815260040180806020018281038252600c8152602001807f556e617574686f72697a6564000000000000000000000000000000000000000081525060200191505060405180910390fd5b8060026000848152602001908152602001600020600201600082825403925050819055505050565b60015481565b60008060003373ffffffffffffffffffffffffffffffffffffffff1673ffffffffffffffffffffffffffffffffffffffff1681526020019081526020016000208054600181600116156101000203166002900490501461126e576040517f08c379a000000000000000000000000000000000000000000000000000000000815260040180806020018281038252601e8152602001807f5374616b65686f6c64657220616c72656164792072656769737465726564000081525060200191505060405180910390fd5b806000803373ffffffffffffffffffffffffffffffffffffffff1673ffffffffffffffffffffffffffffffffffffffff16815260200190815260200160002090805190602001906112c0929190611e3a565b5050565b60008060003373ffffffffffffffffffffffffffffffffffffffff1673ffffffffffffffffffffffffffffffffffffffff1681526020019081526020016000208054600181600116156101000203166002900490501161138c576040517f08c379a000000000000000000000000000000000000000000000000000000000815260040180806020018281038252601a8152602001807f5374616b65686f6c646572206e6f74207265676973746572656400000000000081525060200191505060405180910390fd5b600180600082825401925050819055506040518060a0016040528060015481526020018381526020018281526020018481526020013373ffffffffffffffffffffffffffffffffffffffff16815250600260006001548152602001908152602001600020600082015181600001556020820151816001015560408201518160020155606082015181600301908051906020019061142a929190611eba565b5060808201518160040160006101000a81548173ffffffffffffffffffffffffffffffffffffffff021916908373ffffffffffffffffffffffffffffffffffffffff160217905550905050505050565b8060026000848152602001908152602001600020600201541215611506576040517f08c379a00000000000000000000000000000000000000000000000000000000081526004018080602001828103825260158152602001807f496e73756666696369656e74207175616e74697479000000000000000000000081525060200191505060405180910390fd5b60016003600082825401925050819055506040518060e0016040528060035481526020018381526020018281526020018581526020016040518060400160405280600681526020017f506c61636564000000000000000000000000000000000000000000000000000081525081526020018481526020013373ffffffffffffffffffffffffffffffffffffffff1681525060046000600354815260200190815260200160002060008201518160000155602082015181600101556040820151816002015560608201518160030190805190602001906115e6929190611eba565b506080820151816004019080519060200190611603929190611eba565b5060a0820151816005019080519060200190611620929190611eba565b5060c08201518160060160006101000a81548173ffffffffffffffffffffffffffffffffffffffff021916908373ffffffffffffffffffffffffffffffffffffffff16021790555090505080600260008481526020019081526020016000206002016000828254039250508190555050505050565b60405160200180807f4d616e7566616374757265720000000000000000000000000000000000000000815250600c019050604051602081830303815290604052805190602001206000803373ffffffffffffffffffffffffffffffffffffffff1673ffffffffffffffffffffffffffffffffffffffff16815260200190815260200160002060405160200180828054600181600116156101000203166002900480156117785780601f10611756576101008083540402835291820191611778565b820191906000526020600020905b815481529060010190602001808311611764575b50509150506040516020818303038152906040528051906020012014611806576040517f08c379a000000000000000000000000000000000000000000000000000000000815260040180806020018281038252600c8152602001807f556e617574686f72697a6564000000000000000000000000000000000000000081525060200191505060405180910390fd5b8060026000848152602001908152602001600020600201600082825403925050819055505050565b6004602052806000526040600020600091509050806000015490806001015490806002015490806003018054600181600116156101000203166002900480601f0160208091040260200160405190810160405280929190818152602001828054600181600116156101000203166002900480156118ec5780601f106118c1576101008083540402835291602001916118ec565b820191906000526020600020905b8154815290600101906020018083116118cf57829003601f168201915b505050505090806004018054600181600116156101000203166002900480601f01602080910402602001604051908101604052809291908181526020018280546001816001161561010002031660029004801561198a5780601f1061195f5761010080835404028352916020019161198a565b820191906000526020600020905b81548152906001019060200180831161196d57829003601f168201915b505050505090806005018054600181600116156101000203166002900480601f016020809104026020016040519081016040528092919081815260200182805460018160011615610100020316600290048015611a285780601f106119fd57610100808354040283529160200191611a28565b820191906000526020600020905b815481529060010190602001808311611a0b57829003601f168201915b5050505050908060060160009054906101000a900473ffffffffffffffffffffffffffffffffffffffff16905087565b60405160200180807f4469737472696275746f72000000000000000000000000000000000000000000815250600b019050604051602081830303815290604052805190602001206000803373ffffffffffffffffffffffffffffffffffffffff1673ffffffffffffffffffffffffffffffffffffffff1681526020019081526020016000206040516020018082805460018160011615610100020316600290048015611b3b5780601f10611b19576101008083540402835291820191611b3b565b820191906000526020600020905b815481529060010190602001808311611b27575b50509150506040516020818303038152906040528051906020012014611bc9576040517f08c379a000000000000000000000000000000000000000000000000000000000815260040180806020018281038252600c8152602001807f556e617574686f72697a6564000000000000000000000000000000000000000081525060200191505060405180910390fd5b8060026000848152602001908152602001600020600201600082825403925050819055505050565b60006020528060005260406000206000915090508054600181600116156101000203166002900480601f016020809104026020016040519081016040528092919081815260200182805460018160011615610100020316600290048015611c995780601f10611c6e57610100808354040283529160200191611c99565b820191906000526020600020905b815481529060010190602001808311611c7c57829003601f168201915b505050505081565b60405160200180807f52657461696c65720000000000000000000000000000000000000000000000008152506008019050604051602081830303815290604052805190602001206000803373ffffffffffffffffffffffffffffffffffffffff1673ffffffffffffffffffffffffffffffffffffffff1681526020019081526020016000206040516020018082805460018160011615610100020316600290048015611d845780601f10611d62576101008083540402835291820191611d84565b820191906000526020600020905b815481529060010190602001808311611d70575b50509150506040516020818303038152906040528051906020012014611e12576040517f08c379a000000000000000000000000000000000000000000000000000000000815260040180806020018281038252600c8152602001807f556e617574686f72697a6564000000000000000000000000000000000000000081525060200191505060405180910390fd5b8060026000848152602001908152602001600020600201600082825403925050819055505050565b828054600181600116156101000203166002900490600052602060002090601f016020900481019282601f10611e7b57805160ff1916838001178555611ea9565b82800160010185558215611ea9579182015b82811115611ea8578251825591602001919060010190611e8d565b5b509050611eb69190611f3a565b5090565b828054600181600116156101000203166002900490600052602060002090601f016020900481019282601f10611efb57805160ff1916838001178555611f29565b82800160010185558215611f29579182015b82811115611f28578251825591602001919060010190611f0d565b5b509050611f369190611f3a565b5090565b611f5c91905b80821115611f58576000816000905550600101611f40565b5090565b9056fea265627a7a72315820307ee994694e017ed0ffb6b2d21cfdc0e26b7e54f6777d7347f8997f0776b01064736f6c63430005100032",
  "source": "pragma solidity ^0.5.0;\n\ncontract SupplyChain {\n    // Stakeholders [address and role].\n    mapping(address => string) public stakeholders;\n    \n    // Products details.\n    int public totalProduct = 0;\n    struct Product {\n        int id;\n        int price;\n        int quantity;\n        string name;\n        address producer;\n    }\n    mapping(int => Product) public products;\n    \n    // Order details\n    int public totalOrder = 0;\n    struct Order {\n        int id;\n        int productId;\n        int quantity;\n        string customerName;\n        string status;\n        string deliveryAddress;\n        address customer;\n    }\n    mapping(int => Order) public orders;\n    \n    // Modifier to check if stakeholder is registered\n    modifier onlyRegistered() {\n        require(bytes(stakeholders[msg.sender]).length > 0, \"Stakeholder not registered\");\n        _;\n    }\n\n    // Register stakeholder authentication.\n    modifier registerStakeholderAuth() {\n        require(bytes(stakeholders[msg.sender]).length == 0, \"Stakeholder already registered\");\n        _;\n    }\n    \n    // Add product authentication.\n    modifier addProductAuth() {\n        require(bytes(stakeholders[msg.sender]).length > 0, \"Stakeholder not registered\");\n        _;\n    }\n\n    // Register a new stakeholder\n    function registerStakeholder(string memory _role) public registerStakeholderAuth {\n        stakeholders[msg.sender] = _role;\n    }\n\n    // Add a new product\n    function addProduct(string memory _name, int _price, int _quantity) public addProductAuth {\n        totalProduct += 1;\n        products[totalProduct] = Product(totalProduct, _price, _quantity, _name, msg.sender);\n    }\n\n    // Place an order\n    function placeOrder(string memory _customerName, string memory _deliveryAddress, int _productId, int _quantity) public {\n        require(products[_productId].quantity >= _quantity, \"Insufficient quantity\");\n\n        totalOrder += 1;\n        orders[totalOrder] = Order(totalOrder, _productId, _quantity, _customerName, \"Placed\", _deliveryAddress, msg.sender);\n        products[_productId].quantity -= _quantity;\n    }\n\n    // Update order status\n    function updateOrderStatus(int _orderId, string memory _status) public {\n        require(keccak256(abi.encodePacked(stakeholders[msg.sender])) == keccak256(abi.encodePacked(\"Producer\")) || \n                keccak256(abi.encodePacked(stakeholders[msg.sender])) == keccak256(abi.encodePacked(\"Manufacturer\")) || \n                keccak256(abi.encodePacked(stakeholders[msg.sender])) == keccak256(abi.encodePacked(\"Distributor\")) || \n                keccak256(abi.encodePacked(stakeholders[msg.sender])) == keccak256(abi.encodePacked(\"Retailer\")), \"Unauthorized\");\n        require(keccak256(abi.encodePacked(orders[_orderId].status)) == keccak256(abi.encodePacked(\"Placed\")), \"Order status cannot be updated\");\n        orders[_orderId].status = _status;\n    }\n\n    // Transfer product from producer to manufacturer\n    function transferToManufacturer(int _productId, int _quantity) public {\n        require(keccak256(abi.encodePacked(stakeholders[msg.sender])) == keccak256(abi.encodePacked(\"Producer\")), \"Unauthorized\");\n        products[_productId].quantity -= _quantity;\n    }\n\n    // Transfer product from manufacturer to distributor\n    function transferToDistributor(int _productId, int _quantity) public {\n        require(keccak256(abi.encodePacked(stakeholders[msg.sender])) == keccak256(abi.encodePacked(\"Manufacturer\")), \"Unauthorized\");\n        products[_productId].quantity -= _quantity;\n    }\n\n    // Transfer product from distributor to retailer\n    function transferToRetailer(int _productId, int _quantity) public {\n        require(keccak256(abi.encodePacked(stakeholders[msg.sender])) == keccak256(abi.encodePacked(\"Distributor\")), \"Unauthorized\");\n        products[_productId].quantity -= _quantity;\n    }\n\n    // Transfer product from retailer to customer\n    function transferToCustomer(int _productId, int _quantity) public {\n        require(keccak256(abi.encodePacked(stakeholders[msg.sender])) == keccak256(abi.encodePacked(\"Retailer\")), \"Unauthorized\");\n        products[_productId].quantity -= _quantity;\n    }\n}\n",
  "sourcePath": "/home/samridh/Projects/supply-chain-ethereum/contracts/SupplyChain.sol",
  "compiler": {
    "name": "solc",
    "version": "0.5.16+commit.9c3226ce.Emscripten.clang"
  },
  "schemaVersion": "3.4.16",
  "updatedAt": "2024-04-19T07:23:57.993Z",
  "networkType": "ethereum",
  "devdoc": {
    "methods": {}
  },
  "userdoc": {
    "methods": {}
  }
}